{
  "contractName": "Staker",
  "abi": [
    {
      "inputs": [],
      "stateMutability": "nonpayable",
      "type": "constructor"
    },
    {
      "anonymous": false,
      "inputs": [
        {
          "indexed": true,
          "internalType": "address",
          "name": "owner",
          "type": "address"
        },
        {
          "indexed": true,
          "internalType": "address",
          "name": "spender",
          "type": "address"
        },
        {
          "indexed": false,
          "internalType": "uint256",
          "name": "value",
          "type": "uint256"
        }
      ],
      "name": "Approval",
      "type": "event"
    },
    {
      "anonymous": false,
      "inputs": [
        {
          "indexed": true,
          "internalType": "address",
          "name": "from",
          "type": "address"
        },
        {
          "indexed": true,
          "internalType": "address",
          "name": "to",
          "type": "address"
        },
        {
          "indexed": false,
          "internalType": "uint256",
          "name": "value",
          "type": "uint256"
        }
      ],
      "name": "Transfer",
      "type": "event"
    },
    {
      "inputs": [
        {
          "internalType": "address",
          "name": "owner",
          "type": "address"
        },
        {
          "internalType": "address",
          "name": "spender",
          "type": "address"
        }
      ],
      "name": "allowance",
      "outputs": [
        {
          "internalType": "uint256",
          "name": "",
          "type": "uint256"
        }
      ],
      "stateMutability": "view",
      "type": "function",
      "constant": true
    },
    {
      "inputs": [
        {
          "internalType": "address",
          "name": "spender",
          "type": "address"
        },
        {
          "internalType": "uint256",
          "name": "amount",
          "type": "uint256"
        }
      ],
      "name": "approve",
      "outputs": [
        {
          "internalType": "bool",
          "name": "",
          "type": "bool"
        }
      ],
      "stateMutability": "nonpayable",
      "type": "function"
    },
    {
      "inputs": [
        {
          "internalType": "address",
          "name": "account",
          "type": "address"
        }
      ],
      "name": "balanceOf",
      "outputs": [
        {
          "internalType": "uint256",
          "name": "",
          "type": "uint256"
        }
      ],
      "stateMutability": "view",
      "type": "function",
      "constant": true
    },
    {
      "inputs": [],
      "name": "decimals",
      "outputs": [
        {
          "internalType": "uint8",
          "name": "",
          "type": "uint8"
        }
      ],
      "stateMutability": "view",
      "type": "function",
      "constant": true
    },
    {
      "inputs": [
        {
          "internalType": "address",
          "name": "spender",
          "type": "address"
        },
        {
          "internalType": "uint256",
          "name": "subtractedValue",
          "type": "uint256"
        }
      ],
      "name": "decreaseAllowance",
      "outputs": [
        {
          "internalType": "bool",
          "name": "",
          "type": "bool"
        }
      ],
      "stateMutability": "nonpayable",
      "type": "function"
    },
    {
      "inputs": [
        {
          "internalType": "address",
          "name": "spender",
          "type": "address"
        },
        {
          "internalType": "uint256",
          "name": "addedValue",
          "type": "uint256"
        }
      ],
      "name": "increaseAllowance",
      "outputs": [
        {
          "internalType": "bool",
          "name": "",
          "type": "bool"
        }
      ],
      "stateMutability": "nonpayable",
      "type": "function"
    },
    {
      "inputs": [
        {
          "internalType": "uint256",
          "name": "",
          "type": "uint256"
        }
      ],
      "name": "investors",
      "outputs": [
        {
          "internalType": "address",
          "name": "",
          "type": "address"
        }
      ],
      "stateMutability": "view",
      "type": "function",
      "constant": true
    },
    {
      "inputs": [
        {
          "internalType": "uint256",
          "name": "_amountToMint",
          "type": "uint256"
        }
      ],
      "name": "mintToken",
      "outputs": [],
      "stateMutability": "nonpayable",
      "type": "function"
    },
    {
      "inputs": [],
      "name": "name",
      "outputs": [
        {
          "internalType": "string",
          "name": "",
          "type": "string"
        }
      ],
      "stateMutability": "view",
      "type": "function",
      "constant": true
    },
    {
      "inputs": [],
      "name": "owner",
      "outputs": [
        {
          "internalType": "address",
          "name": "",
          "type": "address"
        }
      ],
      "stateMutability": "view",
      "type": "function",
      "constant": true
    },
    {
      "inputs": [
        {
          "internalType": "address",
          "name": "",
          "type": "address"
        }
      ],
      "name": "rewardAmount",
      "outputs": [
        {
          "internalType": "uint256",
          "name": "",
          "type": "uint256"
        }
      ],
      "stateMutability": "view",
      "type": "function",
      "constant": true
    },
    {
      "inputs": [
        {
          "internalType": "address",
          "name": "",
          "type": "address"
        }
      ],
      "name": "stakedAmount",
      "outputs": [
        {
          "internalType": "uint256",
          "name": "",
          "type": "uint256"
        }
      ],
      "stateMutability": "view",
      "type": "function",
      "constant": true
    },
    {
      "inputs": [],
      "name": "symbol",
      "outputs": [
        {
          "internalType": "string",
          "name": "",
          "type": "string"
        }
      ],
      "stateMutability": "view",
      "type": "function",
      "constant": true
    },
    {
      "inputs": [],
      "name": "tokenPrice",
      "outputs": [
        {
          "internalType": "uint256",
          "name": "",
          "type": "uint256"
        }
      ],
      "stateMutability": "view",
      "type": "function",
      "constant": true
    },
    {
      "inputs": [],
      "name": "totalStaked",
      "outputs": [
        {
          "internalType": "uint256",
          "name": "",
          "type": "uint256"
        }
      ],
      "stateMutability": "view",
      "type": "function",
      "constant": true
    },
    {
      "inputs": [],
      "name": "totalSupply",
      "outputs": [
        {
          "internalType": "uint256",
          "name": "",
          "type": "uint256"
        }
      ],
      "stateMutability": "view",
      "type": "function",
      "constant": true
    },
    {
      "inputs": [
        {
          "internalType": "address",
          "name": "recipient",
          "type": "address"
        },
        {
          "internalType": "uint256",
          "name": "amount",
          "type": "uint256"
        }
      ],
      "name": "transfer",
      "outputs": [
        {
          "internalType": "bool",
          "name": "",
          "type": "bool"
        }
      ],
      "stateMutability": "nonpayable",
      "type": "function"
    },
    {
      "inputs": [
        {
          "internalType": "address",
          "name": "sender",
          "type": "address"
        },
        {
          "internalType": "address",
          "name": "recipient",
          "type": "address"
        },
        {
          "internalType": "uint256",
          "name": "amount",
          "type": "uint256"
        }
      ],
      "name": "transferFrom",
      "outputs": [
        {
          "internalType": "bool",
          "name": "",
          "type": "bool"
        }
      ],
      "stateMutability": "nonpayable",
      "type": "function"
    },
    {
      "inputs": [],
      "name": "deposit",
      "outputs": [],
      "stateMutability": "payable",
      "type": "function",
      "payable": true
    },
    {
      "inputs": [
        {
          "internalType": "address",
          "name": "_address",
          "type": "address"
        }
      ],
      "name": "checkInvestor",
      "outputs": [
        {
          "internalType": "bool",
          "name": "",
          "type": "bool"
        },
        {
          "internalType": "uint256",
          "name": "",
          "type": "uint256"
        }
      ],
      "stateMutability": "view",
      "type": "function",
      "constant": true
    },
    {
      "inputs": [
        {
          "internalType": "uint256",
          "name": "_tokenToStake",
          "type": "uint256"
        }
      ],
      "name": "stake",
      "outputs": [],
      "stateMutability": "nonpayable",
      "type": "function"
    },
    {
      "inputs": [],
      "name": "rewardStakingPool",
      "outputs": [],
      "stateMutability": "nonpayable",
      "type": "function"
    },
    {
      "inputs": [
        {
          "internalType": "uint256",
          "name": "_totalStaked",
          "type": "uint256"
        }
      ],
      "name": "distributeReward",
      "outputs": [],
      "stateMutability": "nonpayable",
      "type": "function"
    },
    {
      "inputs": [
        {
          "internalType": "address",
          "name": "_investor",
          "type": "address"
        },
        {
          "internalType": "uint256",
          "name": "_totalStaked",
          "type": "uint256"
        }
      ],
      "name": "calculateReward",
      "outputs": [
        {
          "internalType": "uint256",
          "name": "",
          "type": "uint256"
        }
      ],
      "stateMutability": "view",
      "type": "function",
      "constant": true
    },
    {
      "inputs": [],
      "name": "withdraw",
      "outputs": [],
      "stateMutability": "nonpayable",
      "type": "function"
    },
    {
      "inputs": [],
      "name": "cashOut",
      "outputs": [],
      "stateMutability": "nonpayable",
      "type": "function"
    }
  ],
  "bytecode": "0x6080604052436008553480156200001557600080fd5b5061271060016040518060400160405280600c81526020017f52657761726420546f6b656e00000000000000000000000000000000000000008152506040518060400160405280600481526020017f52544b4e0000000000000000000000000000000000000000000000000000000081525081600390805190602001906200009f929190620003a5565b508060049080519060200190620000b8929190620003a5565b506012600560006101000a81548160ff021916908360ff1602179055505050620000e933836200013960201b60201c565b8060068190555033600760006101000a81548173ffffffffffffffffffffffffffffffffffffffff021916908373ffffffffffffffffffffffffffffffffffffffff16021790555050506200044b565b600073ffffffffffffffffffffffffffffffffffffffff168273ffffffffffffffffffffffffffffffffffffffff161415620001dd576040517f08c379a000000000000000000000000000000000000000000000000000000000815260040180806020018281038252601f8152602001807f45524332303a206d696e7420746f20746865207a65726f20616464726573730081525060200191505060405180910390fd5b620001f1600083836200031760201b60201c565b6200020d816002546200031c60201b620017821790919060201c565b6002819055506200026b816000808573ffffffffffffffffffffffffffffffffffffffff1673ffffffffffffffffffffffffffffffffffffffff168152602001908152602001600020546200031c60201b620017821790919060201c565b6000808473ffffffffffffffffffffffffffffffffffffffff1673ffffffffffffffffffffffffffffffffffffffff168152602001908152602001600020819055508173ffffffffffffffffffffffffffffffffffffffff16600073ffffffffffffffffffffffffffffffffffffffff167fddf252ad1be2c89b69c2b068fc378daa952ba7f163c4a11628f55a4df523b3ef836040518082815260200191505060405180910390a35050565b505050565b6000808284019050838110156200039b576040517f08c379a000000000000000000000000000000000000000000000000000000000815260040180806020018281038252601b8152602001807f536166654d6174683a206164646974696f6e206f766572666c6f77000000000081525060200191505060405180910390fd5b8091505092915050565b828054600181600116156101000203166002900490600052602060002090601f016020900481019282601f10620003e857805160ff191683800117855562000419565b8280016001018555821562000419579182015b8281111562000418578251825591602001919060010190620003fb565b5b5090506200042891906200042c565b5090565b5b80821115620004475760008160009055506001016200042d565b5090565b6124e9806200045b6000396000f3fe6080604052600436106101815760003560e01c80637ff9b596116100d1578063a694fc3a1161008a578063d0e30db011610064578063d0e30db0146108d6578063dd62ed3e146108e0578063f90b2d0214610965578063f99318551461097c57610181565b8063a694fc3a146107ef578063a9059cbb1461082a578063c634d0321461089b57610181565b80637ff9b5961461061c578063817b1cd2146106475780638da5cb5b14610672578063940a4e45146106b357806395d89b41146106ee578063a457c2d71461077e57610181565b8063313ce5671161013e5780633feb5f2b116101185780633feb5f2b146104d6578063645a8a561461053b57806370a08231146105a0578063793cd71e1461060557610181565b8063313ce56714610420578063395093511461044e5780633ccfd60b146104bf57610181565b806306fdde0314610186578063095ea7b31461021657806318160ddd146102875780631852e8d9146102b257806320d5020c1461032157806323b872dd1461038f575b600080fd5b34801561019257600080fd5b5061019b6109e1565b6040518080602001828103825283818151815260200191508051906020019080838360005b838110156101db5780820151818401526020810190506101c0565b50505050905090810190601f1680156102085780820380516001836020036101000a031916815260200191505b509250505060405180910390f35b34801561022257600080fd5b5061026f6004803603604081101561023957600080fd5b81019080803573ffffffffffffffffffffffffffffffffffffffff16906020019092919080359060200190929190505050610a83565b60405180821515815260200191505060405180910390f35b34801561029357600080fd5b5061029c610aa1565b6040518082815260200191505060405180910390f35b3480156102be57600080fd5b5061030b600480360360408110156102d557600080fd5b81019080803573ffffffffffffffffffffffffffffffffffffffff16906020019092919080359060200190929190505050610aab565b6040518082815260200191505060405180910390f35b34801561032d57600080fd5b506103706004803603602081101561034457600080fd5b81019080803573ffffffffffffffffffffffffffffffffffffffff169060200190929190505050610b07565b6040518083151581526020018281526020019250505060405180910390f35b34801561039b57600080fd5b50610408600480360360608110156103b257600080fd5b81019080803573ffffffffffffffffffffffffffffffffffffffff169060200190929190803573ffffffffffffffffffffffffffffffffffffffff16906020019092919080359060200190929190505050610bab565b60405180821515815260200191505060405180910390f35b34801561042c57600080fd5b50610435610c84565b604051808260ff16815260200191505060405180910390f35b34801561045a57600080fd5b506104a76004803603604081101561047157600080fd5b81019080803573ffffffffffffffffffffffffffffffffffffffff16906020019092919080359060200190929190505050610c9b565b60405180821515815260200191505060405180910390f35b3480156104cb57600080fd5b506104d4610d4e565b005b3480156104e257600080fd5b5061050f600480360360208110156104f957600080fd5b8101908080359060200190929190505050610eb9565b604051808273ffffffffffffffffffffffffffffffffffffffff16815260200191505060405180910390f35b34801561054757600080fd5b5061058a6004803603602081101561055e57600080fd5b81019080803573ffffffffffffffffffffffffffffffffffffffff169060200190929190505050610ef5565b6040518082815260200191505060405180910390f35b3480156105ac57600080fd5b506105ef600480360360208110156105c357600080fd5b81019080803573ffffffffffffffffffffffffffffffffffffffff169060200190929190505050610f0d565b6040518082815260200191505060405180910390f35b34801561061157600080fd5b5061061a610f55565b005b34801561062857600080fd5b50610631611047565b6040518082815260200191505060405180910390f35b34801561065357600080fd5b5061065c61104d565b6040518082815260200191505060405180910390f35b34801561067e57600080fd5b50610687611053565b604051808273ffffffffffffffffffffffffffffffffffffffff16815260200191505060405180910390f35b3480156106bf57600080fd5b506106ec600480360360208110156106d657600080fd5b8101908080359060200190929190505050611079565b005b3480156106fa57600080fd5b50610703611219565b6040518080602001828103825283818151815260200191508051906020019080838360005b83811015610743578082015181840152602081019050610728565b50505050905090810190601f1680156107705780820380516001836020036101000a031916815260200191505b509250505060405180910390f35b34801561078a57600080fd5b506107d7600480360360408110156107a157600080fd5b81019080803573ffffffffffffffffffffffffffffffffffffffff169060200190929190803590602001909291905050506112bb565b60405180821515815260200191505060405180910390f35b3480156107fb57600080fd5b506108286004803603602081101561081257600080fd5b8101908080359060200190929190505050611388565b005b34801561083657600080fd5b506108836004803603604081101561084d57600080fd5b81019080803573ffffffffffffffffffffffffffffffffffffffff169060200190929190803590602001909291905050506114b8565b60405180821515815260200191505060405180910390f35b3480156108a757600080fd5b506108d4600480360360208110156108be57600080fd5b81019080803590602001909291905050506114d6565b005b6108de611589565b005b3480156108ec57600080fd5b5061094f6004803603604081101561090357600080fd5b81019080803573ffffffffffffffffffffffffffffffffffffffff169060200190929190803573ffffffffffffffffffffffffffffffffffffffff1690602001909291905050506115d2565b6040518082815260200191505060405180910390f35b34801561097157600080fd5b5061097a611659565b005b34801561098857600080fd5b506109cb6004803603602081101561099f57600080fd5b81019080803573ffffffffffffffffffffffffffffffffffffffff16906020019092919050505061176a565b6040518082815260200191505060405180910390f35b606060038054600181600116156101000203166002900480601f016020809104026020016040519081016040528092919081815260200182805460018160011615610100020316600290048015610a795780601f10610a4e57610100808354040283529160200191610a79565b820191906000526020600020905b815481529060010190602001808311610a5c57829003601f168201915b5050505050905090565b6000610a97610a9061180a565b8484611812565b6001905092915050565b6000600254905090565b6000610aff600a60008573ffffffffffffffffffffffffffffffffffffffff1673ffffffffffffffffffffffffffffffffffffffff1681526020019081526020016000205483611a0990919063ffffffff16565b905092915050565b60008060005b600980549050811015610b9d5760098181548110610b2757fe5b9060005260206000200160009054906101000a900473ffffffffffffffffffffffffffffffffffffffff1673ffffffffffffffffffffffffffffffffffffffff168473ffffffffffffffffffffffffffffffffffffffff161415610b92576001819250925050610ba6565b600181019050610b0d565b50600080915091505b915091565b6000610bb8848484611a92565b610c7984610bc461180a565b610c748560405180606001604052806028815260200161239760289139600160008b73ffffffffffffffffffffffffffffffffffffffff1673ffffffffffffffffffffffffffffffffffffffff1681526020019081526020016000206000610c2a61180a565b73ffffffffffffffffffffffffffffffffffffffff1673ffffffffffffffffffffffffffffffffffffffff16815260200190815260200160002054611d539092919063ffffffff16565b611812565b600190509392505050565b6000600560009054906101000a900460ff16905090565b6000610d44610ca861180a565b84610d3f8560016000610cb961180a565b73ffffffffffffffffffffffffffffffffffffffff1673ffffffffffffffffffffffffffffffffffffffff16815260200190815260200160002060008973ffffffffffffffffffffffffffffffffffffffff1673ffffffffffffffffffffffffffffffffffffffff1681526020019081526020016000205461178290919063ffffffff16565b611812565b6001905092915050565b6000600c60003373ffffffffffffffffffffffffffffffffffffffff1673ffffffffffffffffffffffffffffffffffffffff1681526020019081526020016000205411610e03576040517f08c379a00000000000000000000000000000000000000000000000000000000081526004018080602001828103825260178152602001807f4e6f207265776172647320746f2077697468647261772e00000000000000000081525060200191505060405180910390fd5b6000600c60003373ffffffffffffffffffffffffffffffffffffffff1673ffffffffffffffffffffffffffffffffffffffff1681526020019081526020016000205490506000610e6482610e5633610f0d565b61178290919063ffffffff16565b90506000600c60003373ffffffffffffffffffffffffffffffffffffffff1673ffffffffffffffffffffffffffffffffffffffff16815260200190815260200160002081905550610eb53382611e0d565b5050565b60098181548110610ec657fe5b906000526020600020016000915054906101000a900473ffffffffffffffffffffffffffffffffffffffff1681565b600c6020528060005260406000206000915090505481565b60008060008373ffffffffffffffffffffffffffffffffffffffff1673ffffffffffffffffffffffffffffffffffffffff168152602001908152602001600020549050919050565b6000610f6033610f0d565b11610fd3576040517f08c379a00000000000000000000000000000000000000000000000000000000081526004018080602001828103825260168152602001807f4e6f20746f6b656e7320746f2077697468647261772e0000000000000000000081525060200191505060405180910390fd5b6000600654610fe133610f0d565b81610fe857fe5b0490503373ffffffffffffffffffffffffffffffffffffffff166108fc829081150290604051600060405180830381858888f19350505050158015611031573d6000803e3d6000fd5b506110443361103f33610f0d565b611fd4565b50565b60065481565b600b5481565b600760009054906101000a900473ffffffffffffffffffffffffffffffffffffffff1681565b600760009054906101000a900473ffffffffffffffffffffffffffffffffffffffff1673ffffffffffffffffffffffffffffffffffffffff163373ffffffffffffffffffffffffffffffffffffffff161461111f576040517f08c379a000000000000000000000000000000000000000000000000000000000815260040180806020018281038252602f815260200180612460602f913960400191505060405180910390fd5b60005b6009805490508110156112155760006009828154811061113e57fe5b9060005260206000200160009054906101000a900473ffffffffffffffffffffffffffffffffffffffff1690506111c66111788285610aab565b600c60008473ffffffffffffffffffffffffffffffffffffffff1673ffffffffffffffffffffffffffffffffffffffff1681526020019081526020016000205461178290919063ffffffff16565b600c60008373ffffffffffffffffffffffffffffffffffffffff1673ffffffffffffffffffffffffffffffffffffffff1681526020019081526020016000208190555050600181019050611122565b5050565b606060048054600181600116156101000203166002900480601f0160208091040260200160405190810160405280929190818152602001828054600181600116156101000203166002900480156112b15780601f10611286576101008083540402835291602001916112b1565b820191906000526020600020905b81548152906001019060200180831161129457829003601f168201915b5050505050905090565b600061137e6112c861180a565b846113798560405180606001604052806025815260200161248f60259139600160006112f261180a565b73ffffffffffffffffffffffffffffffffffffffff1673ffffffffffffffffffffffffffffffffffffffff16815260200190815260200160002060008a73ffffffffffffffffffffffffffffffffffffffff1673ffffffffffffffffffffffffffffffffffffffff16815260200190815260200160002054611d539092919063ffffffff16565b611812565b6001905092915050565b600061139333610f0d565b90506000811180156113a55750808211155b6113fa576040517f08c379a00000000000000000000000000000000000000000000000000000000081526004018080602001828103825260378152602001806124056037913960400191505060405180910390fd5b61144c82600a60003373ffffffffffffffffffffffffffffffffffffffff1673ffffffffffffffffffffffffffffffffffffffff1681526020019081526020016000205461178290919063ffffffff16565b600a60003373ffffffffffffffffffffffffffffffffffffffff1673ffffffffffffffffffffffffffffffffffffffff168152602001908152602001600020819055506114993383611fd4565b6114ae82600b5461178290919063ffffffff16565b600b819055505050565b60006114cc6114c561180a565b8484611a92565b6001905092915050565b600760009054906101000a900473ffffffffffffffffffffffffffffffffffffffff1673ffffffffffffffffffffffffffffffffffffffff163373ffffffffffffffffffffffffffffffffffffffff161461157c576040517f08c379a000000000000000000000000000000000000000000000000000000000815260040180806020018281038252602f815260200180612460602f913960400191505060405180910390fd5b6115863382611e0d565b50565b61159233612198565b6000600654348161159f57fe5b0490506115cf600760009054906101000a900473ffffffffffffffffffffffffffffffffffffffff163383611a92565b50565b6000600160008473ffffffffffffffffffffffffffffffffffffffff1673ffffffffffffffffffffffffffffffffffffffff16815260200190815260200160002060008373ffffffffffffffffffffffffffffffffffffffff1673ffffffffffffffffffffffffffffffffffffffff16815260200190815260200160002054905092915050565b600760009054906101000a900473ffffffffffffffffffffffffffffffffffffffff1673ffffffffffffffffffffffffffffffffffffffff163373ffffffffffffffffffffffffffffffffffffffff16146116ff576040517f08c379a000000000000000000000000000000000000000000000000000000000815260040180806020018281038252602f815260200180612460602f913960400191505060405180910390fd5b600854431161170d57600080fd5b4360088190555061172a6064600b5461178290919063ffffffff16565b600b8190555061175d600760009054906101000a900473ffffffffffffffffffffffffffffffffffffffff166064611fd4565b611768600b54611079565b565b600a6020528060005260406000206000915090505481565b600080828401905083811015611800576040517f08c379a000000000000000000000000000000000000000000000000000000000815260040180806020018281038252601b8152602001807f536166654d6174683a206164646974696f6e206f766572666c6f77000000000081525060200191505060405180910390fd5b8091505092915050565b600033905090565b600073ffffffffffffffffffffffffffffffffffffffff168373ffffffffffffffffffffffffffffffffffffffff161415611898576040517f08c379a000000000000000000000000000000000000000000000000000000000815260040180806020018281038252602481526020018061243c6024913960400191505060405180910390fd5b600073ffffffffffffffffffffffffffffffffffffffff168273ffffffffffffffffffffffffffffffffffffffff16141561191e576040517f08c379a000000000000000000000000000000000000000000000000000000000815260040180806020018281038252602281526020018061234f6022913960400191505060405180910390fd5b80600160008573ffffffffffffffffffffffffffffffffffffffff1673ffffffffffffffffffffffffffffffffffffffff16815260200190815260200160002060008473ffffffffffffffffffffffffffffffffffffffff1673ffffffffffffffffffffffffffffffffffffffff168152602001908152602001600020819055508173ffffffffffffffffffffffffffffffffffffffff168373ffffffffffffffffffffffffffffffffffffffff167f8c5be1e5ebec7d5bd14f71427d1e84f3dd0314c0f7b2291e5b200ac8c7c3b925836040518082815260200191505060405180910390a3505050565b6000808211611a80576040517f08c379a000000000000000000000000000000000000000000000000000000000815260040180806020018281038252601a8152602001807f536166654d6174683a206469766973696f6e206279207a65726f00000000000081525060200191505060405180910390fd5b818381611a8957fe5b04905092915050565b600073ffffffffffffffffffffffffffffffffffffffff168373ffffffffffffffffffffffffffffffffffffffff161415611b18576040517f08c379a00000000000000000000000000000000000000000000000000000000081526004018080602001828103825260258152602001806123e06025913960400191505060405180910390fd5b600073ffffffffffffffffffffffffffffffffffffffff168273ffffffffffffffffffffffffffffffffffffffff161415611b9e576040517f08c379a000000000000000000000000000000000000000000000000000000000815260040180806020018281038252602381526020018061230a6023913960400191505060405180910390fd5b611ba9838383612281565b611c1481604051806060016040528060268152602001612371602691396000808773ffffffffffffffffffffffffffffffffffffffff1673ffffffffffffffffffffffffffffffffffffffff16815260200190815260200160002054611d539092919063ffffffff16565b6000808573ffffffffffffffffffffffffffffffffffffffff1673ffffffffffffffffffffffffffffffffffffffff16815260200190815260200160002081905550611ca7816000808573ffffffffffffffffffffffffffffffffffffffff1673ffffffffffffffffffffffffffffffffffffffff1681526020019081526020016000205461178290919063ffffffff16565b6000808473ffffffffffffffffffffffffffffffffffffffff1673ffffffffffffffffffffffffffffffffffffffff168152602001908152602001600020819055508173ffffffffffffffffffffffffffffffffffffffff168373ffffffffffffffffffffffffffffffffffffffff167fddf252ad1be2c89b69c2b068fc378daa952ba7f163c4a11628f55a4df523b3ef836040518082815260200191505060405180910390a3505050565b6000838311158290611e00576040517f08c379a00000000000000000000000000000000000000000000000000000000081526004018080602001828103825283818151815260200191508051906020019080838360005b83811015611dc5578082015181840152602081019050611daa565b50505050905090810190601f168015611df25780820380516001836020036101000a031916815260200191505b509250505060405180910390fd5b5082840390509392505050565b600073ffffffffffffffffffffffffffffffffffffffff168273ffffffffffffffffffffffffffffffffffffffff161415611eb0576040517f08c379a000000000000000000000000000000000000000000000000000000000815260040180806020018281038252601f8152602001807f45524332303a206d696e7420746f20746865207a65726f20616464726573730081525060200191505060405180910390fd5b611ebc60008383612281565b611ed18160025461178290919063ffffffff16565b600281905550611f28816000808573ffffffffffffffffffffffffffffffffffffffff1673ffffffffffffffffffffffffffffffffffffffff1681526020019081526020016000205461178290919063ffffffff16565b6000808473ffffffffffffffffffffffffffffffffffffffff1673ffffffffffffffffffffffffffffffffffffffff168152602001908152602001600020819055508173ffffffffffffffffffffffffffffffffffffffff16600073ffffffffffffffffffffffffffffffffffffffff167fddf252ad1be2c89b69c2b068fc378daa952ba7f163c4a11628f55a4df523b3ef836040518082815260200191505060405180910390a35050565b600073ffffffffffffffffffffffffffffffffffffffff168273ffffffffffffffffffffffffffffffffffffffff16141561205a576040517f08c379a00000000000000000000000000000000000000000000000000000000081526004018080602001828103825260218152602001806123bf6021913960400191505060405180910390fd5b61206682600083612281565b6120d18160405180606001604052806022815260200161232d602291396000808673ffffffffffffffffffffffffffffffffffffffff1673ffffffffffffffffffffffffffffffffffffffff16815260200190815260200160002054611d539092919063ffffffff16565b6000808473ffffffffffffffffffffffffffffffffffffffff1673ffffffffffffffffffffffffffffffffffffffff168152602001908152602001600020819055506121288160025461228690919063ffffffff16565b600281905550600073ffffffffffffffffffffffffffffffffffffffff168273ffffffffffffffffffffffffffffffffffffffff167fddf252ad1be2c89b69c2b068fc378daa952ba7f163c4a11628f55a4df523b3ef836040518082815260200191505060405180910390a35050565b60006121a382610b07565b509050801561221a576040517f08c379a00000000000000000000000000000000000000000000000000000000081526004018080602001828103825260148152602001807f416c726561647920616e20696e766573746f722e00000000000000000000000081525060200191505060405180910390fd5b6009829080600181540180825580915050600190039060005260206000200160009091909190916101000a81548173ffffffffffffffffffffffffffffffffffffffff021916908373ffffffffffffffffffffffffffffffffffffffff1602179055505050565b505050565b6000828211156122fe576040517f08c379a000000000000000000000000000000000000000000000000000000000815260040180806020018281038252601e8152602001807f536166654d6174683a207375627472616374696f6e206f766572666c6f77000081525060200191505060405180910390fd5b81830390509291505056fe45524332303a207472616e7366657220746f20746865207a65726f206164647265737345524332303a206275726e20616d6f756e7420657863656564732062616c616e636545524332303a20617070726f766520746f20746865207a65726f206164647265737345524332303a207472616e7366657220616d6f756e7420657863656564732062616c616e636545524332303a207472616e7366657220616d6f756e74206578636565647320616c6c6f77616e636545524332303a206275726e2066726f6d20746865207a65726f206164647265737345524332303a207472616e736665722066726f6d20746865207a65726f20616464726573734e6f20746f6b656e732061726520617661696c61626c65206f7220696e73756666696369656e7420746f6b656e7320746f207374616b6545524332303a20617070726f76652066726f6d20746865207a65726f20616464726573734f6e6c792074686520636f6e7472616374206f776e65722063616e2063616c6c20746869732066756e6374696f6e2e45524332303a2064656372656173656420616c6c6f77616e63652062656c6f77207a65726fa26469706673582212204a843bc52fa037f01f4785d901845bbc490290d52b8cc0cb2b617ea6fca688b164736f6c634300060c0033",
  "immutableReferences": {},
  "source": "//SPDX-License-Identifier: MIT\n\npragma solidity ^0.6.2;\n\n/// @title Staker.sol\n/// @author Sean Sing\n/// @dev Staking contract for RewardToken.sol\n\n//@notice contract to inherit RewardToken contract where tokens are minted and inherits Open Zeppelin's ERC20 standard.\nimport \"./RewardToken.sol\";\n\ncontract Staker is RewardToken {\n    //@notice Contract is deployed with some tokens mindted for the distribution to stakers.\n    constructor() public RewardToken(10000, 1) {}\n\n    uint256 currentBlockNumber = block.number; //get current block time to ensure owner can only call reward after every block\n\n    //@notice Method for an investor to purchase tokens for staking.\n    function deposit() public payable {\n        addInvestor(msg.sender);\n        uint256 tokenToTransfer = msg.value / tokenPrice; //calculate how many tokens to transfer based on investment\n        _transfer(owner, msg.sender, tokenToTransfer);\n    }\n\n    //@dev Track list of investors.\n    address[] public investors;\n\n    //@notice Method to check if address is a current investor.\n    //@param _address The address to check if it is a current investor.\n    function checkInvestor(address _address)\n        public\n        view\n        returns (bool, uint256)\n    {\n        for (uint256 i = 0; i < investors.length; i += 1) {\n            if (_address == investors[i]) return (true, i);\n        }\n        return (false, 0);\n    }\n\n    //@notice Method to check and add a new investor\n    //@param _investor the investor to add.\n    function addInvestor(address _investor) internal {\n        (bool _checkInvestor, ) = checkInvestor(_investor);\n        require(!_checkInvestor, \"Already an investor.\");\n        investors.push(_investor);\n    }\n\n    //@notice Method to remove an investor\n    //@param _investor the investor to remove.\n\n    //Staking\n\n    //@notice Track each investor's stake amount and total staked.\n    mapping(address => uint256) public stakedAmount;\n    uint256 public totalStaked;\n\n    //@notice Method for an investor to stake his tokens.\n    //@param _tokenToStake The amount of tokens the investor wants to stake.\n    function stake(uint256 _tokenToStake) public {\n        uint256 tokenBalance = balanceOf(msg.sender);\n        require(\n            tokenBalance > 0 && _tokenToStake <= tokenBalance,\n            \"No tokens are available or insufficient tokens to stake\"\n        );\n        stakedAmount[msg.sender] = stakedAmount[msg.sender].add(_tokenToStake);\n        _burn(msg.sender, _tokenToStake); //burn token amount used for staking\n        totalStaked = totalStaked.add(_tokenToStake); //incraete total staked amount\n    }\n\n    //Rewards\n\n    //@notice To track reward amount for an address\n    mapping(address => uint256) public rewardAmount;\n\n    //@notice Method for owner to reward staking pool at subsequent block number\n    //@dev Owner to setup an automated call for this method, it checks that block number has increased from the current block\n    //@dev replaces currentBlockNumber with new blockNumber and 100 tokens are being distributed to the pool.\n    function rewardStakingPool() public onlyOwner {\n        require(block.number > currentBlockNumber); //ensures reward can only be initiated every new block number\n        currentBlockNumber = block.number;\n        totalStaked = totalStaked.add(100);\n        _burn(owner, 100);\n        distributeReward(totalStaked);\n    }\n\n    //@dev Owner to setup an automated call for this method,\n    //@notice Method for owner to distribute staking reward\n    function distributeReward(uint256 _totalStaked) public onlyOwner {\n        for (uint256 i = 0; i < investors.length; i += 1) {\n            address currentInvestor = investors[i];\n            rewardAmount[currentInvestor] = rewardAmount[currentInvestor].add(\n                calculateReward(currentInvestor, _totalStaked)\n            );\n        }\n    }\n\n    //@notice Method for an investor to stake his tokens.\n    //@param _investor The amount of tokens the investor wants to stake.\n    //Total stakd tokens is divided by the total balance of the deposited tokens so each depositor get's proportional share of the rewards.\n    function calculateReward(address _investor, uint256 _totalStaked)\n        public\n        view\n        returns (uint256)\n    {\n        return _totalStaked.div(stakedAmount[_investor]);\n    }\n\n    //@notice Method for users to withdraw staking rewards and add to their token balance for full withdrawal (principal plus earned rewards).\n    //@dev Safety feature: Mitigate re-entrancy attack by setting withdrawer's amount to 0 before minting.\n    function withdraw() public {\n        require(rewardAmount[msg.sender] > 0, \"No rewards to withdraw.\");\n        uint256 rewardToWithdraw = rewardAmount[msg.sender];\n        uint256 totalToWithdraw = balanceOf(msg.sender).add(rewardToWithdraw);\n        rewardAmount[msg.sender] = 0; //sets balance to 0 first to avoid re-entrancy attack\n        _mint(msg.sender, totalToWithdraw); //mints new token withdrawn, balance of withdrawer increased by ERC20 mint function.\n    }\n\n    //@notice Method for users to withdraw full amount of their tokens (principal plus earned rewards).\n    function cashOut() public {\n        require(balanceOf(msg.sender) > 0, \"No tokens to withdraw.\");\n        uint256 amountToTransfer = balanceOf(msg.sender) / tokenPrice; //calculate token values in wei\n        //_balances in ERC20 contract handles the balance of withdrawer.\n        msg.sender.transfer(amountToTransfer);\n        _burn(msg.sender, balanceOf(msg.sender)); //burn tokens after withdrawal\n    }\n}\n",
  "sourcePath": "/Users/henryking/Dapps/staker/contracts/Staker.sol",
  "compiler": {
    "name": "solc",
    "version": "0.6.12+commit.27d51765.Emscripten.clang"
  },
  "schemaVersion": "3.2.5",
  "updatedAt": "2021-02-19T15:21:07.891Z",
  "networkType": "ethereum",
  "devdoc": {
    "kind": "dev",
    "methods": {
      "allowance(address,address)": {
        "details": "See {IERC20-allowance}."
      },
      "approve(address,uint256)": {
        "details": "See {IERC20-approve}. Requirements: - `spender` cannot be the zero address."
      },
      "balanceOf(address)": {
        "details": "See {IERC20-balanceOf}."
      },
      "decimals()": {
        "details": "Returns the number of decimals used to get its user representation. For example, if `decimals` equals `2`, a balance of `505` tokens should be displayed to a user as `5,05` (`505 / 10 ** 2`). Tokens usually opt for a value of 18, imitating the relationship between Ether and Wei. This is the value {ERC20} uses, unless {_setupDecimals} is called. NOTE: This information is only used for _display_ purposes: it in no way affects any of the arithmetic of the contract, including {IERC20-balanceOf} and {IERC20-transfer}."
      },
      "decreaseAllowance(address,uint256)": {
        "details": "Atomically decreases the allowance granted to `spender` by the caller. This is an alternative to {approve} that can be used as a mitigation for problems described in {IERC20-approve}. Emits an {Approval} event indicating the updated allowance. Requirements: - `spender` cannot be the zero address. - `spender` must have allowance for the caller of at least `subtractedValue`."
      },
      "increaseAllowance(address,uint256)": {
        "details": "Atomically increases the allowance granted to `spender` by the caller. This is an alternative to {approve} that can be used as a mitigation for problems described in {IERC20-approve}. Emits an {Approval} event indicating the updated allowance. Requirements: - `spender` cannot be the zero address."
      },
      "name()": {
        "details": "Returns the name of the token."
      },
      "symbol()": {
        "details": "Returns the symbol of the token, usually a shorter version of the name."
      },
      "totalSupply()": {
        "details": "See {IERC20-totalSupply}."
      },
      "transfer(address,uint256)": {
        "details": "See {IERC20-transfer}. Requirements: - `recipient` cannot be the zero address. - the caller must have a balance of at least `amount`."
      },
      "transferFrom(address,address,uint256)": {
        "details": "See {IERC20-transferFrom}. Emits an {Approval} event indicating the updated allowance. This is not required by the EIP. See the note at the beginning of {ERC20}. Requirements: - `sender` and `recipient` cannot be the zero address. - `sender` must have a balance of at least `amount`. - the caller must have allowance for ``sender``'s tokens of at least `amount`."
      }
    },
    "version": 1
  },
  "userdoc": {
    "kind": "user",
    "methods": {},
    "version": 1
  }
}